{
  "contractName": "FlatSwapXFactory",
  "abi": [
    {
      "inputs": [
        {
          "internalType": "address",
          "name": "_feeToSetter",
          "type": "address"
        }
      ],
      "payable": false,
      "stateMutability": "nonpayable",
      "type": "constructor"
    },
    {
      "anonymous": false,
      "inputs": [
        {
          "indexed": true,
          "internalType": "address",
          "name": "token0",
          "type": "address"
        },
        {
          "indexed": true,
          "internalType": "address",
          "name": "token1",
          "type": "address"
        },
        {
          "indexed": false,
          "internalType": "address",
          "name": "pair",
          "type": "address"
        },
        {
          "indexed": false,
          "internalType": "uint256",
          "name": "",
          "type": "uint256"
        }
      ],
      "name": "PairCreated",
      "type": "event"
    },
    {
      "constant": true,
      "inputs": [],
      "name": "INIT_CODE_PAIR_HASH",
      "outputs": [
        {
          "internalType": "bytes32",
          "name": "",
          "type": "bytes32"
        }
      ],
      "payable": false,
      "stateMutability": "view",
      "type": "function"
    },
    {
      "constant": true,
      "inputs": [
        {
          "internalType": "uint256",
          "name": "",
          "type": "uint256"
        }
      ],
      "name": "allPairs",
      "outputs": [
        {
          "internalType": "address",
          "name": "",
          "type": "address"
        }
      ],
      "payable": false,
      "stateMutability": "view",
      "type": "function"
    },
    {
      "constant": true,
      "inputs": [],
      "name": "feeTo",
      "outputs": [
        {
          "internalType": "address",
          "name": "",
          "type": "address"
        }
      ],
      "payable": false,
      "stateMutability": "view",
      "type": "function"
    },
    {
      "constant": true,
      "inputs": [],
      "name": "feeToSetter",
      "outputs": [
        {
          "internalType": "address",
          "name": "",
          "type": "address"
        }
      ],
      "payable": false,
      "stateMutability": "view",
      "type": "function"
    },
    {
      "constant": true,
      "inputs": [
        {
          "internalType": "address",
          "name": "",
          "type": "address"
        },
        {
          "internalType": "address",
          "name": "",
          "type": "address"
        }
      ],
      "name": "getPair",
      "outputs": [
        {
          "internalType": "address",
          "name": "",
          "type": "address"
        }
      ],
      "payable": false,
      "stateMutability": "view",
      "type": "function"
    },
    {
      "constant": true,
      "inputs": [],
      "name": "allPairsLength",
      "outputs": [
        {
          "internalType": "uint256",
          "name": "",
          "type": "uint256"
        }
      ],
      "payable": false,
      "stateMutability": "view",
      "type": "function"
    },
    {
      "constant": false,
      "inputs": [
        {
          "internalType": "address",
          "name": "tokenA",
          "type": "address"
        },
        {
          "internalType": "address",
          "name": "tokenB",
          "type": "address"
        }
      ],
      "name": "createPair",
      "outputs": [
        {
          "internalType": "address",
          "name": "pair",
          "type": "address"
        }
      ],
      "payable": false,
      "stateMutability": "nonpayable",
      "type": "function"
    },
    {
      "constant": false,
      "inputs": [
        {
          "internalType": "address",
          "name": "_feeTo",
          "type": "address"
        }
      ],
      "name": "setFeeTo",
      "outputs": [],
      "payable": false,
      "stateMutability": "nonpayable",
      "type": "function"
    },
    {
      "constant": false,
      "inputs": [
        {
          "internalType": "address",
          "name": "_feeToSetter",
          "type": "address"
        }
      ],
      "name": "setFeeToSetter",
      "outputs": [],
      "payable": false,
      "stateMutability": "nonpayable",
      "type": "function"
    }
  ],
  "bytecode": "0x608060405234801561001057600080fd5b50604051614b16380380614b168339818101604052602081101561003357600080fd5b810190808051906020019092919050505080600160006101000a81548173ffffffffffffffffffffffffffffffffffffffff021916908373ffffffffffffffffffffffffffffffffffffffff16021790555050614a81806100956000396000f3fe608060405234801561001057600080fd5b50600436106100935760003560e01c80635855a25a116100665780635855a25a146101b8578063a2e74af6146101d6578063c9c653961461021a578063e6a43905146102be578063f46901ed1461036257610093565b8063017e7e5814610098578063094b7415146100e25780631e3dd18b1461012c578063574f2ba31461019a575b600080fd5b6100a06103a6565b604051808273ffffffffffffffffffffffffffffffffffffffff1673ffffffffffffffffffffffffffffffffffffffff16815260200191505060405180910390f35b6100ea6103cb565b604051808273ffffffffffffffffffffffffffffffffffffffff1673ffffffffffffffffffffffffffffffffffffffff16815260200191505060405180910390f35b6101586004803603602081101561014257600080fd5b81019080803590602001909291905050506103f1565b604051808273ffffffffffffffffffffffffffffffffffffffff1673ffffffffffffffffffffffffffffffffffffffff16815260200191505060405180910390f35b6101a261042d565b6040518082815260200191505060405180910390f35b6101c061043a565b6040518082815260200191505060405180910390f35b610218600480360360208110156101ec57600080fd5b81019080803573ffffffffffffffffffffffffffffffffffffffff1690602001909291905050506104d2565b005b61027c6004803603604081101561023057600080fd5b81019080803573ffffffffffffffffffffffffffffffffffffffff169060200190929190803573ffffffffffffffffffffffffffffffffffffffff1690602001909291905050506105d9565b604051808273ffffffffffffffffffffffffffffffffffffffff1673ffffffffffffffffffffffffffffffffffffffff16815260200191505060405180910390f35b610320600480360360408110156102d457600080fd5b81019080803573ffffffffffffffffffffffffffffffffffffffff169060200190929190803573ffffffffffffffffffffffffffffffffffffffff169060200190929190505050610cb6565b604051808273ffffffffffffffffffffffffffffffffffffffff1673ffffffffffffffffffffffffffffffffffffffff16815260200191505060405180910390f35b6103a46004803603602081101561037857600080fd5b81019080803573ffffffffffffffffffffffffffffffffffffffff169060200190929190505050610cf8565b005b6000809054906101000a900473ffffffffffffffffffffffffffffffffffffffff1681565b600160009054906101000a900473ffffffffffffffffffffffffffffffffffffffff1681565b600381815481106103fe57fe5b906000526020600020016000915054906101000a900473ffffffffffffffffffffffffffffffffffffffff1681565b6000600380549050905090565b6040518060200161044a90610dfe565b6020820181038252601f19601f820116604052506040516020018082805190602001908083835b602083106104945780518252602082019150602081019050602083039250610471565b6001836020036101000a0380198251168184511680821785525050505050509050019150506040516020818303038152906040528051906020012081565b600160009054906101000a900473ffffffffffffffffffffffffffffffffffffffff1673ffffffffffffffffffffffffffffffffffffffff163373ffffffffffffffffffffffffffffffffffffffff1614610595576040517f08c379a00000000000000000000000000000000000000000000000000000000081526004018080602001828103825260108152602001807f53776170583a20464f5242494444454e0000000000000000000000000000000081525060200191505060405180910390fd5b80600160006101000a81548173ffffffffffffffffffffffffffffffffffffffff021916908373ffffffffffffffffffffffffffffffffffffffff16021790555050565b60008173ffffffffffffffffffffffffffffffffffffffff168373ffffffffffffffffffffffffffffffffffffffff16141561067d576040517f08c379a000000000000000000000000000000000000000000000000000000000815260040180806020018281038252601a8152602001807f53776170583a204944454e544943414c5f41444452455353455300000000000081525060200191505060405180910390fd5b6000808373ffffffffffffffffffffffffffffffffffffffff168573ffffffffffffffffffffffffffffffffffffffff16106106ba5783856106bd565b84845b91509150600073ffffffffffffffffffffffffffffffffffffffff168273ffffffffffffffffffffffffffffffffffffffff161415610764576040517f08c379a00000000000000000000000000000000000000000000000000000000081526004018080602001828103825260138152602001807f53776170583a205a45524f5f414444524553530000000000000000000000000081525060200191505060405180910390fd5b600073ffffffffffffffffffffffffffffffffffffffff16600260008473ffffffffffffffffffffffffffffffffffffffff1673ffffffffffffffffffffffffffffffffffffffff16815260200190815260200160002060008373ffffffffffffffffffffffffffffffffffffffff1673ffffffffffffffffffffffffffffffffffffffff16815260200190815260200160002060009054906101000a900473ffffffffffffffffffffffffffffffffffffffff1673ffffffffffffffffffffffffffffffffffffffff16146108a2576040517f08c379a00000000000000000000000000000000000000000000000000000000081526004018080602001828103825260128152602001807f53776170583a20504149525f455849535453000000000000000000000000000081525060200191505060405180910390fd5b6060604051806020016108b490610dfe565b6020820181038252601f19601f82011660405250905060008383604051602001808373ffffffffffffffffffffffffffffffffffffffff1673ffffffffffffffffffffffffffffffffffffffff1660601b81526014018273ffffffffffffffffffffffffffffffffffffffff1673ffffffffffffffffffffffffffffffffffffffff1660601b815260140192505050604051602081830303815290604052805190602001209050808251602084016000f594508473ffffffffffffffffffffffffffffffffffffffff1663485cc95585856040518363ffffffff1660e01b8152600401808373ffffffffffffffffffffffffffffffffffffffff1673ffffffffffffffffffffffffffffffffffffffff1681526020018273ffffffffffffffffffffffffffffffffffffffff1673ffffffffffffffffffffffffffffffffffffffff16815260200192505050600060405180830381600087803b158015610a1a57600080fd5b505af1158015610a2e573d6000803e3d6000fd5b5050505084600260008673ffffffffffffffffffffffffffffffffffffffff1673ffffffffffffffffffffffffffffffffffffffff16815260200190815260200160002060008573ffffffffffffffffffffffffffffffffffffffff1673ffffffffffffffffffffffffffffffffffffffff16815260200190815260200160002060006101000a81548173ffffffffffffffffffffffffffffffffffffffff021916908373ffffffffffffffffffffffffffffffffffffffff16021790555084600260008573ffffffffffffffffffffffffffffffffffffffff1673ffffffffffffffffffffffffffffffffffffffff16815260200190815260200160002060008673ffffffffffffffffffffffffffffffffffffffff1673ffffffffffffffffffffffffffffffffffffffff16815260200190815260200160002060006101000a81548173ffffffffffffffffffffffffffffffffffffffff021916908373ffffffffffffffffffffffffffffffffffffffff16021790555060038590806001815401808255809150509060018203906000526020600020016000909192909190916101000a81548173ffffffffffffffffffffffffffffffffffffffff021916908373ffffffffffffffffffffffffffffffffffffffff160217905550508273ffffffffffffffffffffffffffffffffffffffff168473ffffffffffffffffffffffffffffffffffffffff167f0d3648bd0f6ba80134a33ba9275ac585d9d315f0ad8355cddefde31afa28d0e987600380549050604051808373ffffffffffffffffffffffffffffffffffffffff1673ffffffffffffffffffffffffffffffffffffffff1681526020018281526020019250505060405180910390a35050505092915050565b60026020528160005260406000206020528060005260406000206000915091509054906101000a900473ffffffffffffffffffffffffffffffffffffffff1681565b600160009054906101000a900473ffffffffffffffffffffffffffffffffffffffff1673ffffffffffffffffffffffffffffffffffffffff163373ffffffffffffffffffffffffffffffffffffffff1614610dbb576040517f08c379a00000000000000000000000000000000000000000000000000000000081526004018080602001828103825260108152602001807f53776170583a20464f5242494444454e0000000000000000000000000000000081525060200191505060405180910390fd5b806000806101000a81548173ffffffffffffffffffffffffffffffffffffffff021916908373ffffffffffffffffffffffffffffffffffffffff16021790555050565b613c4180610e0c8339019056fe60806040526001600c5534801561001557600080fd5b5060004690506040518080613bef60529139605201905060405180910390206040518060400160405280600981526020017f5377617058204c50730000000000000000000000000000000000000000000000815250805190602001206040518060400160405280600181526020017f3100000000000000000000000000000000000000000000000000000000000000815250805190602001208330604051602001808681526020018581526020018481526020018381526020018273ffffffffffffffffffffffffffffffffffffffff1673ffffffffffffffffffffffffffffffffffffffff16815260200195505050505050604051602081830303815290604052805190602001206003819055505033600560006101000a81548173ffffffffffffffffffffffffffffffffffffffff021916908373ffffffffffffffffffffffffffffffffffffffff160217905550613a7a806101756000396000f3fe608060405234801561001057600080fd5b50600436106101a95760003560e01c80636a627842116100f9578063ba9a7a5611610097578063d21220a711610071578063d21220a7146108c4578063d505accf1461090e578063dd62ed3e146109a7578063fff6cae914610a1f576101a9565b8063ba9a7a5614610818578063bc25cf7714610836578063c45a01551461087a576101a9565b80637ecebe00116100d35780637ecebe001461067857806389afcb44146106d057806395d89b411461072f578063a9059cbb146107b2576101a9565b80636a627842146105aa57806370a08231146106025780637464fc3d1461065a576101a9565b806323b872dd116101665780633644e515116101405780633644e515146104ec578063485cc9551461050a5780635909c0d51461056e5780635a3d54931461058c576101a9565b806323b872dd1461042457806330adf81f146104aa578063313ce567146104c8576101a9565b8063022c0d9f146101ae57806306fdde031461025b5780630902f1ac146102de578063095ea7b3146103565780630dfe1681146103bc57806318160ddd14610406575b600080fd5b610259600480360360808110156101c457600080fd5b810190808035906020019092919080359060200190929190803573ffffffffffffffffffffffffffffffffffffffff1690602001909291908035906020019064010000000081111561021557600080fd5b82018360208201111561022757600080fd5b8035906020019184600183028401116401000000008311171561024957600080fd5b9091929391929390505050610a29565b005b610263611251565b6040518080602001828103825283818151815260200191508051906020019080838360005b838110156102a3578082015181840152602081019050610288565b50505050905090810190601f1680156102d05780820380516001836020036101000a031916815260200191505b509250505060405180910390f35b6102e661128a565b60405180846dffffffffffffffffffffffffffff166dffffffffffffffffffffffffffff168152602001836dffffffffffffffffffffffffffff166dffffffffffffffffffffffffffff1681526020018263ffffffff1663ffffffff168152602001935050505060405180910390f35b6103a26004803603604081101561036c57600080fd5b81019080803573ffffffffffffffffffffffffffffffffffffffff169060200190929190803590602001909291905050506112e7565b604051808215151515815260200191505060405180910390f35b6103c46112fe565b604051808273ffffffffffffffffffffffffffffffffffffffff1673ffffffffffffffffffffffffffffffffffffffff16815260200191505060405180910390f35b61040e611324565b6040518082815260200191505060405180910390f35b6104906004803603606081101561043a57600080fd5b81019080803573ffffffffffffffffffffffffffffffffffffffff169060200190929190803573ffffffffffffffffffffffffffffffffffffffff1690602001909291908035906020019092919050505061132a565b604051808215151515815260200191505060405180910390f35b6104b26114f5565b6040518082815260200191505060405180910390f35b6104d061151c565b604051808260ff1660ff16815260200191505060405180910390f35b6104f4611521565b6040518082815260200191505060405180910390f35b61056c6004803603604081101561052057600080fd5b81019080803573ffffffffffffffffffffffffffffffffffffffff169060200190929190803573ffffffffffffffffffffffffffffffffffffffff169060200190929190505050611527565b005b610576611670565b6040518082815260200191505060405180910390f35b610594611676565b6040518082815260200191505060405180910390f35b6105ec600480360360208110156105c057600080fd5b81019080803573ffffffffffffffffffffffffffffffffffffffff16906020019092919050505061167c565b6040518082815260200191505060405180910390f35b6106446004803603602081101561061857600080fd5b81019080803573ffffffffffffffffffffffffffffffffffffffff169060200190929190505050611b2d565b6040518082815260200191505060405180910390f35b610662611b45565b6040518082815260200191505060405180910390f35b6106ba6004803603602081101561068e57600080fd5b81019080803573ffffffffffffffffffffffffffffffffffffffff169060200190929190505050611b4b565b6040518082815260200191505060405180910390f35b610712600480360360208110156106e657600080fd5b81019080803573ffffffffffffffffffffffffffffffffffffffff169060200190929190505050611b63565b604051808381526020018281526020019250505060405180910390f35b610737612150565b6040518080602001828103825283818151815260200191508051906020019080838360005b8381101561077757808201518184015260208101905061075c565b50505050905090810190601f1680156107a45780820380516001836020036101000a031916815260200191505b509250505060405180910390f35b6107fe600480360360408110156107c857600080fd5b81019080803573ffffffffffffffffffffffffffffffffffffffff16906020019092919080359060200190929190505050612189565b604051808215151515815260200191505060405180910390f35b6108206121a0565b6040518082815260200191505060405180910390f35b6108786004803603602081101561084c57600080fd5b81019080803573ffffffffffffffffffffffffffffffffffffffff1690602001909291905050506121a6565b005b610882612481565b604051808273ffffffffffffffffffffffffffffffffffffffff1673ffffffffffffffffffffffffffffffffffffffff16815260200191505060405180910390f35b6108cc6124a7565b604051808273ffffffffffffffffffffffffffffffffffffffff1673ffffffffffffffffffffffffffffffffffffffff16815260200191505060405180910390f35b6109a5600480360360e081101561092457600080fd5b81019080803573ffffffffffffffffffffffffffffffffffffffff169060200190929190803573ffffffffffffffffffffffffffffffffffffffff1690602001909291908035906020019092919080359060200190929190803560ff16906020019092919080359060200190929190803590602001909291905050506124cd565b005b610a09600480360360408110156109bd57600080fd5b81019080803573ffffffffffffffffffffffffffffffffffffffff169060200190929190803573ffffffffffffffffffffffffffffffffffffffff169060200190929190505050612811565b6040518082815260200191505060405180910390f35b610a27612836565b005b6001600c5414610aa1576040517f08c379a000000000000000000000000000000000000000000000000000000000815260040180806020018281038252600d8152602001807f53776170583a204c4f434b45440000000000000000000000000000000000000081525060200191505060405180910390fd5b6000600c819055506000851180610ab85750600084115b610b0d576040517f08c379a00000000000000000000000000000000000000000000000000000000081526004018080602001828103825260218152602001806139dd6021913960400191505060405180910390fd5b600080610b1861128a565b5091509150816dffffffffffffffffffffffffffff1687108015610b4b5750806dffffffffffffffffffffffffffff1686105b610bbd576040517f08c379a000000000000000000000000000000000000000000000000000000000815260040180806020018281038252601d8152602001807f53776170583a20494e53554646494349454e545f4c495155494449545900000081525060200191505060405180910390fd5b6000806000600660009054906101000a900473ffffffffffffffffffffffffffffffffffffffff1690506000600760009054906101000a900473ffffffffffffffffffffffffffffffffffffffff1690508173ffffffffffffffffffffffffffffffffffffffff168973ffffffffffffffffffffffffffffffffffffffff1614158015610c7657508073ffffffffffffffffffffffffffffffffffffffff168973ffffffffffffffffffffffffffffffffffffffff1614155b610ce8576040517f08c379a00000000000000000000000000000000000000000000000000000000081526004018080602001828103825260118152602001807f53776170583a20494e56414c49445f544f00000000000000000000000000000081525060200191505060405180910390fd5b60008b1115610cfd57610cfc828a8d612ab6565b5b60008a1115610d1257610d11818a8c612ab6565b5b6000888890501115610dfa578873ffffffffffffffffffffffffffffffffffffffff1663a3eb19dd338d8d8c8c6040518663ffffffff1660e01b8152600401808673ffffffffffffffffffffffffffffffffffffffff1673ffffffffffffffffffffffffffffffffffffffff168152602001858152602001848152602001806020018281038252848482818152602001925080828437600081840152601f19601f8201169050808301925050509650505050505050600060405180830381600087803b158015610de157600080fd5b505af1158015610df5573d6000803e3d6000fd5b505050505b8173ffffffffffffffffffffffffffffffffffffffff166370a08231306040518263ffffffff1660e01b8152600401808273ffffffffffffffffffffffffffffffffffffffff1673ffffffffffffffffffffffffffffffffffffffff16815260200191505060206040518083038186803b158015610e7757600080fd5b505afa158015610e8b573d6000803e3d6000fd5b505050506040513d6020811015610ea157600080fd5b810190808051906020019092919050505093508073ffffffffffffffffffffffffffffffffffffffff166370a08231306040518263ffffffff1660e01b8152600401808273ffffffffffffffffffffffffffffffffffffffff1673ffffffffffffffffffffffffffffffffffffffff16815260200191505060206040518083038186803b158015610f3157600080fd5b505afa158015610f45573d6000803e3d6000fd5b505050506040513d6020811015610f5b57600080fd5b810190808051906020019092919050505092505050600089856dffffffffffffffffffffffffffff16038311610f92576000610fa8565b89856dffffffffffffffffffffffffffff160383035b9050600089856dffffffffffffffffffffffffffff16038311610fcc576000610fe2565b89856dffffffffffffffffffffffffffff160383035b90506000821180610ff35750600081115b611065576040517f08c379a00000000000000000000000000000000000000000000000000000000081526004018080602001828103825260208152602001807f53776170583a20494e53554646494349454e545f494e5055545f414d4f554e5481525060200191505060405180910390fd5b60006110a161107e601985612d0390919063ffffffff16565b61109361271088612d0390919063ffffffff16565b612d9890919063ffffffff16565b905060006110df6110bc601985612d0390919063ffffffff16565b6110d161271088612d0390919063ffffffff16565b612d9890919063ffffffff16565b905061112a6305f5e10061111c896dffffffffffffffffffffffffffff168b6dffffffffffffffffffffffffffff16612d0390919063ffffffff16565b612d0390919063ffffffff16565b61113d8284612d0390919063ffffffff16565b10156111b1576040517f08c379a00000000000000000000000000000000000000000000000000000000081526004018080602001828103825260088152602001807f53776170583a204b00000000000000000000000000000000000000000000000081525060200191505060405180910390fd5b50506111bf84848888612e1b565b8873ffffffffffffffffffffffffffffffffffffffff163373ffffffffffffffffffffffffffffffffffffffff167fd78ad95fa46c994b6551d0da85fc275fe613ce37657fb8d5e3d130840159d82284848f8f6040518085815260200184815260200183815260200182815260200194505050505060405180910390a35050505050506001600c819055505050505050565b6040518060400160405280600981526020017f5377617058204c5073000000000000000000000000000000000000000000000081525081565b6000806000600860009054906101000a90046dffffffffffffffffffffffffffff1692506008600e9054906101000a90046dffffffffffffffffffffffffffff1691506008601c9054906101000a900463ffffffff169050909192565b60006112f4338484613199565b6001905092915050565b600660009054906101000a900473ffffffffffffffffffffffffffffffffffffffff1681565b60005481565b60007fffffffffffffffffffffffffffffffffffffffffffffffffffffffffffffffff600260008673ffffffffffffffffffffffffffffffffffffffff1673ffffffffffffffffffffffffffffffffffffffff16815260200190815260200160002060003373ffffffffffffffffffffffffffffffffffffffff1673ffffffffffffffffffffffffffffffffffffffff16815260200190815260200160002054146114df5761145e82600260008773ffffffffffffffffffffffffffffffffffffffff1673ffffffffffffffffffffffffffffffffffffffff16815260200190815260200160002060003373ffffffffffffffffffffffffffffffffffffffff1673ffffffffffffffffffffffffffffffffffffffff16815260200190815260200160002054612d9890919063ffffffff16565b600260008673ffffffffffffffffffffffffffffffffffffffff1673ffffffffffffffffffffffffffffffffffffffff16815260200190815260200160002060003373ffffffffffffffffffffffffffffffffffffffff1673ffffffffffffffffffffffffffffffffffffffff168152602001908152602001600020819055505b6114ea848484613284565b600190509392505050565b7f6e71edae12b1b97f4d1f60370fef10105fa2faae0126114a169c64845d6126c960001b81565b601281565b60035481565b600560009054906101000a900473ffffffffffffffffffffffffffffffffffffffff1673ffffffffffffffffffffffffffffffffffffffff163373ffffffffffffffffffffffffffffffffffffffff16146115ea576040517f08c379a00000000000000000000000000000000000000000000000000000000081526004018080602001828103825260108152602001807f53776170583a20464f5242494444454e0000000000000000000000000000000081525060200191505060405180910390fd5b81600660006101000a81548173ffffffffffffffffffffffffffffffffffffffff021916908373ffffffffffffffffffffffffffffffffffffffff16021790555080600760006101000a81548173ffffffffffffffffffffffffffffffffffffffff021916908373ffffffffffffffffffffffffffffffffffffffff1602179055505050565b60095481565b600a5481565b60006001600c54146116f6576040517f08c379a000000000000000000000000000000000000000000000000000000000815260040180806020018281038252600d8152602001807f53776170583a204c4f434b45440000000000000000000000000000000000000081525060200191505060405180910390fd5b6000600c8190555060008061170961128a565b50915091506000600660009054906101000a900473ffffffffffffffffffffffffffffffffffffffff1673ffffffffffffffffffffffffffffffffffffffff166370a08231306040518263ffffffff1660e01b8152600401808273ffffffffffffffffffffffffffffffffffffffff1673ffffffffffffffffffffffffffffffffffffffff16815260200191505060206040518083038186803b1580156117af57600080fd5b505afa1580156117c3573d6000803e3d6000fd5b505050506040513d60208110156117d957600080fd5b810190808051906020019092919050505090506000600760009054906101000a900473ffffffffffffffffffffffffffffffffffffffff1673ffffffffffffffffffffffffffffffffffffffff166370a08231306040518263ffffffff1660e01b8152600401808273ffffffffffffffffffffffffffffffffffffffff1673ffffffffffffffffffffffffffffffffffffffff16815260200191505060206040518083038186803b15801561188d57600080fd5b505afa1580156118a1573d6000803e3d6000fd5b505050506040513d60208110156118b757600080fd5b8101908080519060200190929190505050905060006118ef856dffffffffffffffffffffffffffff1684612d9890919063ffffffff16565b90506000611916856dffffffffffffffffffffffffffff1684612d9890919063ffffffff16565b905060006119248787613418565b90506000805490506000811415611978576119646103e86119566119518688612d0390919063ffffffff16565b61361f565b612d9890919063ffffffff16565b985061197360006103e8613681565b6119db565b6119d8886dffffffffffffffffffffffffffff1661199f8387612d0390919063ffffffff16565b816119a657fe5b04886dffffffffffffffffffffffffffff166119cb8487612d0390919063ffffffff16565b816119d257fe5b0461379b565b98505b60008911611a34576040517f08c379a0000000000000000000000000000000000000000000000000000000008152600401808060200182810382526024815260200180613a226024913960400191505060405180910390fd5b611a3e8a8a613681565b611a4a86868a8a612e1b565b8115611ac257611abb6008600e9054906101000a90046dffffffffffffffffffffffffffff166dffffffffffffffffffffffffffff16600860009054906101000a90046dffffffffffffffffffffffffffff166dffffffffffffffffffffffffffff16612d0390919063ffffffff16565b600b819055505b3373ffffffffffffffffffffffffffffffffffffffff167f4c209b5fc8ad50758f13e2e1088ba56a560dff690a1c6fef26394f4c03821c4f8585604051808381526020018281526020019250505060405180910390a250505050505050506001600c81905550919050565b60016020528060005260406000206000915090505481565b600b5481565b60046020528060005260406000206000915090505481565b6000806001600c5414611bde576040517f08c379a000000000000000000000000000000000000000000000000000000000815260040180806020018281038252600d8152602001807f53776170583a204c4f434b45440000000000000000000000000000000000000081525060200191505060405180910390fd5b6000600c81905550600080611bf161128a565b50915091506000600660009054906101000a900473ffffffffffffffffffffffffffffffffffffffff1690506000600760009054906101000a900473ffffffffffffffffffffffffffffffffffffffff16905060008273ffffffffffffffffffffffffffffffffffffffff166370a08231306040518263ffffffff1660e01b8152600401808273ffffffffffffffffffffffffffffffffffffffff1673ffffffffffffffffffffffffffffffffffffffff16815260200191505060206040518083038186803b158015611cc357600080fd5b505afa158015611cd7573d6000803e3d6000fd5b505050506040513d6020811015611ced57600080fd5b8101908080519060200190929190505050905060008273ffffffffffffffffffffffffffffffffffffffff166370a08231306040518263ffffffff1660e01b8152600401808273ffffffffffffffffffffffffffffffffffffffff1673ffffffffffffffffffffffffffffffffffffffff16815260200191505060206040518083038186803b158015611d7f57600080fd5b505afa158015611d93573d6000803e3d6000fd5b505050506040513d6020811015611da957600080fd5b810190808051906020019092919050505090506000600160003073ffffffffffffffffffffffffffffffffffffffff1673ffffffffffffffffffffffffffffffffffffffff1681526020019081526020016000205490506000611e0c8888613418565b905060008054905080611e288685612d0390919063ffffffff16565b81611e2f57fe5b049a5080611e468585612d0390919063ffffffff16565b81611e4d57fe5b04995060008b118015611e60575060008a115b611eb5576040517f08c379a00000000000000000000000000000000000000000000000000000000081526004018080602001828103825260248152602001806139fe6024913960400191505060405180910390fd5b611ebf30846137b4565b611eca878d8d612ab6565b611ed5868d8c612ab6565b8673ffffffffffffffffffffffffffffffffffffffff166370a08231306040518263ffffffff1660e01b8152600401808273ffffffffffffffffffffffffffffffffffffffff1673ffffffffffffffffffffffffffffffffffffffff16815260200191505060206040518083038186803b158015611f5257600080fd5b505afa158015611f66573d6000803e3d6000fd5b505050506040513d6020811015611f7c57600080fd5b810190808051906020019092919050505094508573ffffffffffffffffffffffffffffffffffffffff166370a08231306040518263ffffffff1660e01b8152600401808273ffffffffffffffffffffffffffffffffffffffff1673ffffffffffffffffffffffffffffffffffffffff16815260200191505060206040518083038186803b15801561200c57600080fd5b505afa158015612020573d6000803e3d6000fd5b505050506040513d602081101561203657600080fd5b8101908080519060200190929190505050935061205585858b8b612e1b565b81156120cd576120c66008600e9054906101000a90046dffffffffffffffffffffffffffff166dffffffffffffffffffffffffffff16600860009054906101000a90046dffffffffffffffffffffffffffff166dffffffffffffffffffffffffffff16612d0390919063ffffffff16565b600b819055505b8b73ffffffffffffffffffffffffffffffffffffffff163373ffffffffffffffffffffffffffffffffffffffff167fdccd412f0b1252819cb1fd330b93224ca42612892bb3f4f789976e6d819364968d8d604051808381526020018281526020019250505060405180910390a35050505050505050506001600c81905550915091565b6040518060400160405280600881526020017f53574150582d4c5000000000000000000000000000000000000000000000000081525081565b6000612196338484613284565b6001905092915050565b6103e881565b6001600c541461221e576040517f08c379a000000000000000000000000000000000000000000000000000000000815260040180806020018281038252600d8152602001807f53776170583a204c4f434b45440000000000000000000000000000000000000081525060200191505060405180910390fd5b6000600c819055506000600660009054906101000a900473ffffffffffffffffffffffffffffffffffffffff1690506000600760009054906101000a900473ffffffffffffffffffffffffffffffffffffffff169050612374828461236f600860009054906101000a90046dffffffffffffffffffffffffffff166dffffffffffffffffffffffffffff168673ffffffffffffffffffffffffffffffffffffffff166370a08231306040518263ffffffff1660e01b8152600401808273ffffffffffffffffffffffffffffffffffffffff1673ffffffffffffffffffffffffffffffffffffffff16815260200191505060206040518083038186803b15801561232657600080fd5b505afa15801561233a573d6000803e3d6000fd5b505050506040513d602081101561235057600080fd5b8101908080519060200190929190505050612d9890919063ffffffff16565b612ab6565b612474818461246f6008600e9054906101000a90046dffffffffffffffffffffffffffff166dffffffffffffffffffffffffffff168573ffffffffffffffffffffffffffffffffffffffff166370a08231306040518263ffffffff1660e01b8152600401808273ffffffffffffffffffffffffffffffffffffffff1673ffffffffffffffffffffffffffffffffffffffff16815260200191505060206040518083038186803b15801561242657600080fd5b505afa15801561243a573d6000803e3d6000fd5b505050506040513d602081101561245057600080fd5b8101908080519060200190929190505050612d9890919063ffffffff16565b612ab6565b50506001600c8190555050565b600560009054906101000a900473ffffffffffffffffffffffffffffffffffffffff1681565b600760009054906101000a900473ffffffffffffffffffffffffffffffffffffffff1681565b42841015612543576040517f08c379a000000000000000000000000000000000000000000000000000000000815260040180806020018281038252600e8152602001807f53776170583a204558504952454400000000000000000000000000000000000081525060200191505060405180910390fd5b60006003547f6e71edae12b1b97f4d1f60370fef10105fa2faae0126114a169c64845d6126c960001b898989600460008e73ffffffffffffffffffffffffffffffffffffffff1673ffffffffffffffffffffffffffffffffffffffff1681526020019081526020016000206000815480929190600101919050558a604051602001808781526020018673ffffffffffffffffffffffffffffffffffffffff1673ffffffffffffffffffffffffffffffffffffffff1681526020018573ffffffffffffffffffffffffffffffffffffffff1673ffffffffffffffffffffffffffffffffffffffff16815260200184815260200183815260200182815260200196505050505050506040516020818303038152906040528051906020012060405160200180807f190100000000000000000000000000000000000000000000000000000000000081525060020183815260200182815260200192505050604051602081830303815290604052805190602001209050600060018286868660405160008152602001604052604051808581526020018460ff1660ff1681526020018381526020018281526020019450505050506020604051602081039080840390855afa158015612715573d6000803e3d6000fd5b505050602060405103519050600073ffffffffffffffffffffffffffffffffffffffff168173ffffffffffffffffffffffffffffffffffffffff161415801561278957508873ffffffffffffffffffffffffffffffffffffffff168173ffffffffffffffffffffffffffffffffffffffff16145b6127fb576040517f08c379a00000000000000000000000000000000000000000000000000000000081526004018080602001828103825260188152602001807f53776170583a20494e56414c49445f5349474e4154555245000000000000000081525060200191505060405180910390fd5b612806898989613199565b505050505050505050565b6002602052816000526040600020602052806000526040600020600091509150505481565b6001600c54146128ae576040517f08c379a000000000000000000000000000000000000000000000000000000000815260040180806020018281038252600d8152602001807f53776170583a204c4f434b45440000000000000000000000000000000000000081525060200191505060405180910390fd5b6000600c81905550612aac600660009054906101000a900473ffffffffffffffffffffffffffffffffffffffff1673ffffffffffffffffffffffffffffffffffffffff166370a08231306040518263ffffffff1660e01b8152600401808273ffffffffffffffffffffffffffffffffffffffff1673ffffffffffffffffffffffffffffffffffffffff16815260200191505060206040518083038186803b15801561295857600080fd5b505afa15801561296c573d6000803e3d6000fd5b505050506040513d602081101561298257600080fd5b8101908080519060200190929190505050600760009054906101000a900473ffffffffffffffffffffffffffffffffffffffff1673ffffffffffffffffffffffffffffffffffffffff166370a08231306040518263ffffffff1660e01b8152600401808273ffffffffffffffffffffffffffffffffffffffff1673ffffffffffffffffffffffffffffffffffffffff16815260200191505060206040518083038186803b158015612a3257600080fd5b505afa158015612a46573d6000803e3d6000fd5b505050506040513d6020811015612a5c57600080fd5b8101908080519060200190929190505050600860009054906101000a90046dffffffffffffffffffffffffffff166008600e9054906101000a90046dffffffffffffffffffffffffffff16612e1b565b6001600c81905550565b600060608473ffffffffffffffffffffffffffffffffffffffff166040518060400160405280601981526020017f7472616e7366657228616464726573732c75696e743235362900000000000000815250805190602001208585604051602401808373ffffffffffffffffffffffffffffffffffffffff1673ffffffffffffffffffffffffffffffffffffffff16815260200182815260200192505050604051602081830303815290604052907bffffffffffffffffffffffffffffffffffffffffffffffffffffffff19166020820180517bffffffffffffffffffffffffffffffffffffffffffffffffffffffff83818316178352505050506040518082805190602001908083835b60208310612be35780518252602082019150602081019050602083039250612bc0565b6001836020036101000a0380198251168184511680821785525050505050509050019150506000604051808303816000865af19150503d8060008114612c45576040519150601f19603f3d011682016040523d82523d6000602084013e612c4a565b606091505b5091509150818015612c8a5750600081511480612c895750808060200190516020811015612c7757600080fd5b81019080805190602001909291905050505b5b612cfc576040517f08c379a00000000000000000000000000000000000000000000000000000000081526004018080602001828103825260168152602001807f53776170583a205452414e534645525f4641494c45440000000000000000000081525060200191505060405180910390fd5b5050505050565b600080821480612d205750828283850292508281612d1d57fe5b04145b612d92576040517f08c379a00000000000000000000000000000000000000000000000000000000081526004018080602001828103825260148152602001807f64732d6d6174682d6d756c2d6f766572666c6f7700000000000000000000000081525060200191505060405180910390fd5b92915050565b6000828284039150811115612e15576040517f08c379a00000000000000000000000000000000000000000000000000000000081526004018080602001828103825260158152602001807f64732d6d6174682d7375622d756e646572666c6f77000000000000000000000081525060200191505060405180910390fd5b92915050565b7fffffffffffffffffffffffffffffffffffffffffffffffffffffffffffffffff6dffffffffffffffffffffffffffff168411158015612e8b57507fffffffffffffffffffffffffffffffffffffffffffffffffffffffffffffffff6dffffffffffffffffffffffffffff168311155b612efd576040517f08c379a000000000000000000000000000000000000000000000000000000000815260040180806020018281038252600f8152602001807f53776170583a204f564552464c4f57000000000000000000000000000000000081525060200191505060405180910390fd5b60006401000000004281612f0d57fe5b06905060006008601c9054906101000a900463ffffffff168203905060008163ffffffff16118015612f5057506000846dffffffffffffffffffffffffffff1614155b8015612f6d57506000836dffffffffffffffffffffffffffff1614155b1561304f578063ffffffff16612fb285612f86866138ce565b7bffffffffffffffffffffffffffffffffffffffffffffffffffffffff166138f990919063ffffffff16565b7bffffffffffffffffffffffffffffffffffffffffffffffffffffffff16026009600082825401925050819055508063ffffffff1661302084612ff4876138ce565b7bffffffffffffffffffffffffffffffffffffffffffffffffffffffff166138f990919063ffffffff16565b7bffffffffffffffffffffffffffffffffffffffffffffffffffffffff1602600a600082825401925050819055505b85600860006101000a8154816dffffffffffffffffffffffffffff02191690836dffffffffffffffffffffffffffff160217905550846008600e6101000a8154816dffffffffffffffffffffffffffff02191690836dffffffffffffffffffffffffffff160217905550816008601c6101000a81548163ffffffff021916908363ffffffff1602179055507f1c411e9a96e071241c2f21f7726b17ae89e3cab4c78be50e062b03a9fffbbad1600860009054906101000a90046dffffffffffffffffffffffffffff166008600e9054906101000a90046dffffffffffffffffffffffffffff1660405180836dffffffffffffffffffffffffffff166dffffffffffffffffffffffffffff168152602001826dffffffffffffffffffffffffffff166dffffffffffffffffffffffffffff1681526020019250505060405180910390a1505050505050565b80600260008573ffffffffffffffffffffffffffffffffffffffff1673ffffffffffffffffffffffffffffffffffffffff16815260200190815260200160002060008473ffffffffffffffffffffffffffffffffffffffff1673ffffffffffffffffffffffffffffffffffffffff168152602001908152602001600020819055508173ffffffffffffffffffffffffffffffffffffffff168373ffffffffffffffffffffffffffffffffffffffff167f8c5be1e5ebec7d5bd14f71427d1e84f3dd0314c0f7b2291e5b200ac8c7c3b925836040518082815260200191505060405180910390a3505050565b6132d681600160008673ffffffffffffffffffffffffffffffffffffffff1673ffffffffffffffffffffffffffffffffffffffff16815260200190815260200160002054612d9890919063ffffffff16565b600160008573ffffffffffffffffffffffffffffffffffffffff1673ffffffffffffffffffffffffffffffffffffffff1681526020019081526020016000208190555061336b81600160008573ffffffffffffffffffffffffffffffffffffffff1673ffffffffffffffffffffffffffffffffffffffff1681526020019081526020016000205461395990919063ffffffff16565b600160008473ffffffffffffffffffffffffffffffffffffffff1673ffffffffffffffffffffffffffffffffffffffff168152602001908152602001600020819055508173ffffffffffffffffffffffffffffffffffffffff168373ffffffffffffffffffffffffffffffffffffffff167fddf252ad1be2c89b69c2b068fc378daa952ba7f163c4a11628f55a4df523b3ef836040518082815260200191505060405180910390a3505050565b600080600560009054906101000a900473ffffffffffffffffffffffffffffffffffffffff1673ffffffffffffffffffffffffffffffffffffffff1663017e7e586040518163ffffffff1660e01b815260040160206040518083038186803b15801561348357600080fd5b505afa158015613497573d6000803e3d6000fd5b505050506040513d60208110156134ad57600080fd5b81019080805190602001909291905050509050600073ffffffffffffffffffffffffffffffffffffffff168173ffffffffffffffffffffffffffffffffffffffff16141591506000600b54905082156136055760008114613600576000613545613540866dffffffffffffffffffffffffffff16886dffffffffffffffffffffffffffff16612d0390919063ffffffff16565b61361f565b905060006135528361361f565b9050808211156135fd576000613598600861358a6135798587612d9890919063ffffffff16565b600054612d0390919063ffffffff16565b612d0390919063ffffffff16565b905060006135d56135b3600885612d0390919063ffffffff16565b6135c7601187612d0390919063ffffffff16565b61395990919063ffffffff16565b905060008183816135e257fe5b04905060008111156135f9576135f88782613681565b5b5050505b50505b613617565b60008114613616576000600b819055505b5b505092915050565b6000600382111561366e57819050600060016002848161363b57fe5b040190505b818110156136685780915060028182858161365757fe5b04018161366057fe5b049050613640565b5061367c565b6000821461367b57600190505b5b919050565b6136968160005461395990919063ffffffff16565b6000819055506136ee81600160008573ffffffffffffffffffffffffffffffffffffffff1673ffffffffffffffffffffffffffffffffffffffff1681526020019081526020016000205461395990919063ffffffff16565b600160008473ffffffffffffffffffffffffffffffffffffffff1673ffffffffffffffffffffffffffffffffffffffff168152602001908152602001600020819055508173ffffffffffffffffffffffffffffffffffffffff16600073ffffffffffffffffffffffffffffffffffffffff167fddf252ad1be2c89b69c2b068fc378daa952ba7f163c4a11628f55a4df523b3ef836040518082815260200191505060405180910390a35050565b60008183106137aa57816137ac565b825b905092915050565b61380681600160008573ffffffffffffffffffffffffffffffffffffffff1673ffffffffffffffffffffffffffffffffffffffff16815260200190815260200160002054612d9890919063ffffffff16565b600160008473ffffffffffffffffffffffffffffffffffffffff1673ffffffffffffffffffffffffffffffffffffffff1681526020019081526020016000208190555061385e81600054612d9890919063ffffffff16565b600081905550600073ffffffffffffffffffffffffffffffffffffffff168273ffffffffffffffffffffffffffffffffffffffff167fddf252ad1be2c89b69c2b068fc378daa952ba7f163c4a11628f55a4df523b3ef836040518082815260200191505060405180910390a35050565b60006e010000000000000000000000000000826dffffffffffffffffffffffffffff16029050919050565b6000816dffffffffffffffffffffffffffff167bffffffffffffffffffffffffffffffffffffffffffffffffffffffff16837bffffffffffffffffffffffffffffffffffffffffffffffffffffffff168161395057fe5b04905092915050565b60008282840191508110156139d6576040517f08c379a00000000000000000000000000000000000000000000000000000000081526004018080602001828103825260148152602001807f64732d6d6174682d6164642d6f766572666c6f7700000000000000000000000081525060200191505060405180910390fd5b9291505056fe53776170583a20494e53554646494349454e545f4f55545055545f414d4f554e5453776170583a20494e53554646494349454e545f4c49515549444954595f4255524e454453776170583a20494e53554646494349454e545f4c49515549444954595f4d494e544544a265627a7a72315820bedf032ad50365b665b1e48be5b9f77d6c40cf1e45e7e5cb99383b57dfb7037164736f6c63430005100032454950373132446f6d61696e28737472696e67206e616d652c737472696e672076657273696f6e2c75696e7432353620636861696e49642c6164647265737320766572696679696e67436f6e747261637429a265627a7a72315820503c86bac46e8726fdba8dce1e855375a2d315e272c475a477918c60082f7cd164736f6c63430005100032",
  "source": "pragma solidity =0.5.16;\r\n\r\n\r\n// a library for performing overflow-safe math, courtesy of DappHub (https://github.com/dapphub/ds-math)\r\nlibrary SafeMath {\r\n    function add(uint x, uint y) internal pure returns (uint z) {\r\n        require((z = x + y) >= x, 'ds-math-add-overflow');\r\n    }\r\n\r\n    function sub(uint x, uint y) internal pure returns (uint z) {\r\n        require((z = x - y) <= x, 'ds-math-sub-underflow');\r\n    }\r\n\r\n    function mul(uint x, uint y) internal pure returns (uint z) {\r\n        require(y == 0 || (z = x * y) / y == x, 'ds-math-mul-overflow');\r\n    }\r\n}\r\n\r\n// a library for performing various math operations\r\nlibrary Math {\r\n    function min(uint x, uint y) internal pure returns (uint z) {\r\n        z = x < y ? x : y;\r\n    }\r\n\r\n    // babylonian method (https://en.wikipedia.org/wiki/Methods_of_computing_square_roots#Babylonian_method)\r\n    function sqrt(uint y) internal pure returns (uint z) {\r\n        if (y > 3) {\r\n            z = y;\r\n            uint x = y / 2 + 1;\r\n            while (x < z) {\r\n                z = x;\r\n                x = (y / x + x) / 2;\r\n            }\r\n        } else if (y != 0) {\r\n            z = 1;\r\n        }\r\n    }\r\n}\r\n\r\n// a library for handling binary fixed point numbers (https://en.wikipedia.org/wiki/Q_(number_format))\r\n// range: [0, 2**112 - 1]\r\n// resolution: 1 / 2**112\r\nlibrary UQ112x112 {\r\n    uint224 constant Q112 = 2**112;\r\n\r\n    // encode a uint112 as a UQ112x112\r\n    function encode(uint112 y) internal pure returns (uint224 z) {\r\n        z = uint224(y) * Q112; // never overflows\r\n    }\r\n\r\n    // divide a UQ112x112 by a uint112, returning a UQ112x112\r\n    function uqdiv(uint224 x, uint112 y) internal pure returns (uint224 z) {\r\n        z = x / uint224(y);\r\n    }\r\n}\r\n\r\ninterface ISwapXFactory {\r\n    event PairCreated(address indexed token0, address indexed token1, address pair, uint);\r\n\r\n    function feeTo() external view returns (address);\r\n    function feeToSetter() external view returns (address);\r\n\r\n    function getPair(address tokenA, address tokenB) external view returns (address pair);\r\n    function allPairs(uint) external view returns (address pair);\r\n    function allPairsLength() external view returns (uint);\r\n\r\n    function createPair(address tokenA, address tokenB) external returns (address pair);\r\n\r\n    function setFeeTo(address) external;\r\n    function setFeeToSetter(address) external;\r\n}\r\n\r\ninterface ISwapXPair {\r\n    event Approval(address indexed owner, address indexed spender, uint value);\r\n    event Transfer(address indexed from, address indexed to, uint value);\r\n\r\n    function name() external pure returns (string memory);\r\n    function symbol() external pure returns (string memory);\r\n    function decimals() external pure returns (uint8);\r\n    function totalSupply() external view returns (uint);\r\n    function balanceOf(address owner) external view returns (uint);\r\n    function allowance(address owner, address spender) external view returns (uint);\r\n\r\n    function approve(address spender, uint value) external returns (bool);\r\n    function transfer(address to, uint value) external returns (bool);\r\n    function transferFrom(address from, address to, uint value) external returns (bool);\r\n\r\n    function DOMAIN_SEPARATOR() external view returns (bytes32);\r\n    function PERMIT_TYPEHASH() external pure returns (bytes32);\r\n    function nonces(address owner) external view returns (uint);\r\n\r\n    function permit(address owner, address spender, uint value, uint deadline, uint8 v, bytes32 r, bytes32 s) external;\r\n\r\n    event Mint(address indexed sender, uint amount0, uint amount1);\r\n    event Burn(address indexed sender, uint amount0, uint amount1, address indexed to);\r\n    event Swap(\r\n        address indexed sender,\r\n        uint amount0In,\r\n        uint amount1In,\r\n        uint amount0Out,\r\n        uint amount1Out,\r\n        address indexed to\r\n    );\r\n    event Sync(uint112 reserve0, uint112 reserve1);\r\n\r\n    function MINIMUM_LIQUIDITY() external pure returns (uint);\r\n    function factory() external view returns (address);\r\n    function token0() external view returns (address);\r\n    function token1() external view returns (address);\r\n    function getReserves() external view returns (uint112 reserve0, uint112 reserve1, uint32 blockTimestampLast);\r\n    function price0CumulativeLast() external view returns (uint);\r\n    function price1CumulativeLast() external view returns (uint);\r\n    function kLast() external view returns (uint);\r\n\r\n    function mint(address to) external returns (uint liquidity);\r\n    function burn(address to) external returns (uint amount0, uint amount1);\r\n    function swap(uint amount0Out, uint amount1Out, address to, bytes calldata data) external;\r\n    function skim(address to) external;\r\n    function sync() external;\r\n\r\n    function initialize(address, address) external;\r\n}\r\n\r\ninterface ISwapXERC20 {\r\n    event Approval(address indexed owner, address indexed spender, uint value);\r\n    event Transfer(address indexed from, address indexed to, uint value);\r\n\r\n    function name() external pure returns (string memory);\r\n    function symbol() external pure returns (string memory);\r\n    function decimals() external pure returns (uint8);\r\n    function totalSupply() external view returns (uint);\r\n    function balanceOf(address owner) external view returns (uint);\r\n    function allowance(address owner, address spender) external view returns (uint);\r\n\r\n    function approve(address spender, uint value) external returns (bool);\r\n    function transfer(address to, uint value) external returns (bool);\r\n    function transferFrom(address from, address to, uint value) external returns (bool);\r\n\r\n    function DOMAIN_SEPARATOR() external view returns (bytes32);\r\n    function PERMIT_TYPEHASH() external pure returns (bytes32);\r\n    function nonces(address owner) external view returns (uint);\r\n\r\n    function permit(address owner, address spender, uint value, uint deadline, uint8 v, bytes32 r, bytes32 s) external;\r\n}\r\n\r\ncontract SwapXERC20 is ISwapXERC20 {\r\n    using SafeMath for uint;\r\n\r\n    string public constant name = 'SwapX LPs';\r\n    string public constant symbol = 'SWAPX-LP';\r\n    uint8 public constant decimals = 18;\r\n    uint  public totalSupply;\r\n    mapping(address => uint) public balanceOf;\r\n    mapping(address => mapping(address => uint)) public allowance;\r\n\r\n    bytes32 public DOMAIN_SEPARATOR;\r\n    // keccak256(\"Permit(address owner,address spender,uint256 value,uint256 nonce,uint256 deadline)\");\r\n    bytes32 public constant PERMIT_TYPEHASH = 0x6e71edae12b1b97f4d1f60370fef10105fa2faae0126114a169c64845d6126c9;\r\n    mapping(address => uint) public nonces;\r\n\r\n    event Approval(address indexed owner, address indexed spender, uint value);\r\n    event Transfer(address indexed from, address indexed to, uint value);\r\n\r\n    constructor() public {\r\n        uint chainId;\r\n        assembly {\r\n            chainId := chainid\r\n        }\r\n        DOMAIN_SEPARATOR = keccak256(\r\n            abi.encode(\r\n                keccak256('EIP712Domain(string name,string version,uint256 chainId,address verifyingContract)'),\r\n                keccak256(bytes(name)),\r\n                keccak256(bytes('1')),\r\n                chainId,\r\n                address(this)\r\n            )\r\n        );\r\n    }\r\n\r\n    function _mint(address to, uint value) internal {\r\n        totalSupply = totalSupply.add(value);\r\n        balanceOf[to] = balanceOf[to].add(value);\r\n        emit Transfer(address(0), to, value);\r\n    }\r\n\r\n    function _burn(address from, uint value) internal {\r\n        balanceOf[from] = balanceOf[from].sub(value);\r\n        totalSupply = totalSupply.sub(value);\r\n        emit Transfer(from, address(0), value);\r\n    }\r\n\r\n    function _approve(address owner, address spender, uint value) private {\r\n        allowance[owner][spender] = value;\r\n        emit Approval(owner, spender, value);\r\n    }\r\n\r\n    function _transfer(address from, address to, uint value) private {\r\n        balanceOf[from] = balanceOf[from].sub(value);\r\n        balanceOf[to] = balanceOf[to].add(value);\r\n        emit Transfer(from, to, value);\r\n    }\r\n\r\n    function approve(address spender, uint value) external returns (bool) {\r\n        _approve(msg.sender, spender, value);\r\n        return true;\r\n    }\r\n\r\n    function transfer(address to, uint value) external returns (bool) {\r\n        _transfer(msg.sender, to, value);\r\n        return true;\r\n    }\r\n\r\n    function transferFrom(address from, address to, uint value) external returns (bool) {\r\n        if (allowance[from][msg.sender] != uint(-1)) {\r\n            allowance[from][msg.sender] = allowance[from][msg.sender].sub(value);\r\n        }\r\n        _transfer(from, to, value);\r\n        return true;\r\n    }\r\n\r\n    function permit(address owner, address spender, uint value, uint deadline, uint8 v, bytes32 r, bytes32 s) external {\r\n        require(deadline >= block.timestamp, 'SwapX: EXPIRED');\r\n        bytes32 digest = keccak256(\r\n            abi.encodePacked(\r\n                '\\x19\\x01',\r\n                DOMAIN_SEPARATOR,\r\n                keccak256(abi.encode(PERMIT_TYPEHASH, owner, spender, value, nonces[owner]++, deadline))\r\n            )\r\n        );\r\n        address recoveredAddress = ecrecover(digest, v, r, s);\r\n        require(recoveredAddress != address(0) && recoveredAddress == owner, 'SwapX: INVALID_SIGNATURE');\r\n        _approve(owner, spender, value);\r\n    }\r\n}\r\n\r\ninterface IERC20 {\r\n    event Approval(address indexed owner, address indexed spender, uint value);\r\n    event Transfer(address indexed from, address indexed to, uint value);\r\n\r\n    function name() external view returns (string memory);\r\n    function symbol() external view returns (string memory);\r\n    function decimals() external view returns (uint8);\r\n    function totalSupply() external view returns (uint);\r\n    function balanceOf(address owner) external view returns (uint);\r\n    function allowance(address owner, address spender) external view returns (uint);\r\n\r\n    function approve(address spender, uint value) external returns (bool);\r\n    function transfer(address to, uint value) external returns (bool);\r\n    function transferFrom(address from, address to, uint value) external returns (bool);\r\n}\r\n\r\ninterface ISwapXCallee {\r\n    function swapxCall(address sender, uint amount0, uint amount1, bytes calldata data) external;\r\n}\r\n\r\ncontract SwapXPair is ISwapXPair, SwapXERC20 {\r\n    using SafeMath  for uint;\r\n    using UQ112x112 for uint224;\r\n\r\n    uint public constant MINIMUM_LIQUIDITY = 10**3;\r\n    bytes4 private constant SELECTOR = bytes4(keccak256(bytes('transfer(address,uint256)')));\r\n\r\n    address public factory;\r\n    address public token0;\r\n    address public token1;\r\n\r\n    uint112 private reserve0;           // uses single storage slot, accessible via getReserves\r\n    uint112 private reserve1;           // uses single storage slot, accessible via getReserves\r\n    uint32  private blockTimestampLast; // uses single storage slot, accessible via getReserves\r\n\r\n    uint public price0CumulativeLast;\r\n    uint public price1CumulativeLast;\r\n    uint public kLast; // reserve0 * reserve1, as of immediately after the most recent liquidity event\r\n\r\n    uint private unlocked = 1;\r\n    modifier lock() {\r\n        require(unlocked == 1, 'SwapX: LOCKED');\r\n        unlocked = 0;\r\n        _;\r\n        unlocked = 1;\r\n    }\r\n\r\n    function getReserves() public view returns (uint112 _reserve0, uint112 _reserve1, uint32 _blockTimestampLast) {\r\n        _reserve0 = reserve0;\r\n        _reserve1 = reserve1;\r\n        _blockTimestampLast = blockTimestampLast;\r\n    }\r\n\r\n    function _safeTransfer(address token, address to, uint value) private {\r\n        (bool success, bytes memory data) = token.call(abi.encodeWithSelector(SELECTOR, to, value));\r\n        require(success && (data.length == 0 || abi.decode(data, (bool))), 'SwapX: TRANSFER_FAILED');\r\n    }\r\n\r\n    event Mint(address indexed sender, uint amount0, uint amount1);\r\n    event Burn(address indexed sender, uint amount0, uint amount1, address indexed to);\r\n    event Swap(\r\n        address indexed sender,\r\n        uint amount0In,\r\n        uint amount1In,\r\n        uint amount0Out,\r\n        uint amount1Out,\r\n        address indexed to\r\n    );\r\n    event Sync(uint112 reserve0, uint112 reserve1);\r\n\r\n    constructor() public {\r\n        factory = msg.sender;\r\n    }\r\n\r\n    // called once by the factory at time of deployment\r\n    function initialize(address _token0, address _token1) external {\r\n        require(msg.sender == factory, 'SwapX: FORBIDDEN'); // sufficient check\r\n        token0 = _token0;\r\n        token1 = _token1;\r\n    }\r\n\r\n    // update reserves and, on the first call per block, price accumulators\r\n    function _update(uint balance0, uint balance1, uint112 _reserve0, uint112 _reserve1) private {\r\n        require(balance0 <= uint112(-1) && balance1 <= uint112(-1), 'SwapX: OVERFLOW');\r\n        uint32 blockTimestamp = uint32(block.timestamp % 2**32);\r\n        uint32 timeElapsed = blockTimestamp - blockTimestampLast; // overflow is desired\r\n        if (timeElapsed > 0 && _reserve0 != 0 && _reserve1 != 0) {\r\n            // * never overflows, and + overflow is desired\r\n            price0CumulativeLast += uint(UQ112x112.encode(_reserve1).uqdiv(_reserve0)) * timeElapsed;\r\n            price1CumulativeLast += uint(UQ112x112.encode(_reserve0).uqdiv(_reserve1)) * timeElapsed;\r\n        }\r\n        reserve0 = uint112(balance0);\r\n        reserve1 = uint112(balance1);\r\n        blockTimestampLast = blockTimestamp;\r\n        emit Sync(reserve0, reserve1);\r\n    }\r\n\r\n    // if fee is on, mint liquidity equivalent to 8/25 of the growth in sqrt(k)\r\n    function _mintFee(uint112 _reserve0, uint112 _reserve1) private returns (bool feeOn) {\r\n        address feeTo = ISwapXFactory(factory).feeTo();\r\n        feeOn = feeTo != address(0);\r\n        uint _kLast = kLast; // gas savings\r\n        if (feeOn) {\r\n            if (_kLast != 0) {\r\n                uint rootK = Math.sqrt(uint(_reserve0).mul(_reserve1));\r\n                uint rootKLast = Math.sqrt(_kLast);\r\n                if (rootK > rootKLast) {\r\n                    uint numerator = totalSupply.mul(rootK.sub(rootKLast)).mul(8);\r\n                    uint denominator = rootK.mul(17).add(rootKLast.mul(8));\r\n                    uint liquidity = numerator / denominator;\r\n                    if (liquidity > 0) _mint(feeTo, liquidity);\r\n                }\r\n            }\r\n        } else if (_kLast != 0) {\r\n            kLast = 0;\r\n        }\r\n    }\r\n\r\n    // this low-level function should be called from a contract which performs important safety checks\r\n    function mint(address to) external lock returns (uint liquidity) {\r\n        (uint112 _reserve0, uint112 _reserve1,) = getReserves(); // gas savings\r\n        uint balance0 = IERC20(token0).balanceOf(address(this));\r\n        uint balance1 = IERC20(token1).balanceOf(address(this));\r\n        uint amount0 = balance0.sub(_reserve0);\r\n        uint amount1 = balance1.sub(_reserve1);\r\n\r\n        bool feeOn = _mintFee(_reserve0, _reserve1);\r\n        uint _totalSupply = totalSupply; // gas savings, must be defined here since totalSupply can update in _mintFee\r\n        if (_totalSupply == 0) {\r\n            liquidity = Math.sqrt(amount0.mul(amount1)).sub(MINIMUM_LIQUIDITY);\r\n           _mint(address(0), MINIMUM_LIQUIDITY); // permanently lock the first MINIMUM_LIQUIDITY tokens\r\n        } else {\r\n            liquidity = Math.min(amount0.mul(_totalSupply) / _reserve0, amount1.mul(_totalSupply) / _reserve1);\r\n        }\r\n        require(liquidity > 0, 'SwapX: INSUFFICIENT_LIQUIDITY_MINTED');\r\n        _mint(to, liquidity);\r\n\r\n        _update(balance0, balance1, _reserve0, _reserve1);\r\n        if (feeOn) kLast = uint(reserve0).mul(reserve1); // reserve0 and reserve1 are up-to-date\r\n        emit Mint(msg.sender, amount0, amount1);\r\n    }\r\n\r\n    // this low-level function should be called from a contract which performs important safety checks\r\n    function burn(address to) external lock returns (uint amount0, uint amount1) {\r\n        (uint112 _reserve0, uint112 _reserve1,) = getReserves(); // gas savings\r\n        address _token0 = token0;                                // gas savings\r\n        address _token1 = token1;                                // gas savings\r\n        uint balance0 = IERC20(_token0).balanceOf(address(this));\r\n        uint balance1 = IERC20(_token1).balanceOf(address(this));\r\n        uint liquidity = balanceOf[address(this)];\r\n\r\n        bool feeOn = _mintFee(_reserve0, _reserve1);\r\n        uint _totalSupply = totalSupply; // gas savings, must be defined here since totalSupply can update in _mintFee\r\n        amount0 = liquidity.mul(balance0) / _totalSupply; // using balances ensures pro-rata distribution\r\n        amount1 = liquidity.mul(balance1) / _totalSupply; // using balances ensures pro-rata distribution\r\n        require(amount0 > 0 && amount1 > 0, 'SwapX: INSUFFICIENT_LIQUIDITY_BURNED');\r\n        _burn(address(this), liquidity);\r\n        _safeTransfer(_token0, to, amount0);\r\n        _safeTransfer(_token1, to, amount1);\r\n        balance0 = IERC20(_token0).balanceOf(address(this));\r\n        balance1 = IERC20(_token1).balanceOf(address(this));\r\n\r\n        _update(balance0, balance1, _reserve0, _reserve1);\r\n        if (feeOn) kLast = uint(reserve0).mul(reserve1); // reserve0 and reserve1 are up-to-date\r\n        emit Burn(msg.sender, amount0, amount1, to);\r\n    }\r\n\r\n    // this low-level function should be called from a contract which performs important safety checks\r\n    function swap(uint amount0Out, uint amount1Out, address to, bytes calldata data) external lock {\r\n        require(amount0Out > 0 || amount1Out > 0, 'SwapX: INSUFFICIENT_OUTPUT_AMOUNT');\r\n        (uint112 _reserve0, uint112 _reserve1,) = getReserves(); // gas savings\r\n        require(amount0Out < _reserve0 && amount1Out < _reserve1, 'SwapX: INSUFFICIENT_LIQUIDITY');\r\n\r\n        uint balance0;\r\n        uint balance1;\r\n        { // scope for _token{0,1}, avoids stack too deep errors\r\n        address _token0 = token0;\r\n        address _token1 = token1;\r\n        require(to != _token0 && to != _token1, 'SwapX: INVALID_TO');\r\n        if (amount0Out > 0) _safeTransfer(_token0, to, amount0Out); // optimistically transfer tokens\r\n        if (amount1Out > 0) _safeTransfer(_token1, to, amount1Out); // optimistically transfer tokens\r\n        if (data.length > 0) ISwapXCallee(to).swapxCall(msg.sender, amount0Out, amount1Out, data);\r\n        balance0 = IERC20(_token0).balanceOf(address(this));\r\n        balance1 = IERC20(_token1).balanceOf(address(this));\r\n        }\r\n        uint amount0In = balance0 > _reserve0 - amount0Out ? balance0 - (_reserve0 - amount0Out) : 0;\r\n        uint amount1In = balance1 > _reserve1 - amount1Out ? balance1 - (_reserve1 - amount1Out) : 0;\r\n        require(amount0In > 0 || amount1In > 0, 'SwapX: INSUFFICIENT_INPUT_AMOUNT');\r\n        { // scope for reserve{0,1}Adjusted, avoids stack too deep errors\r\n        uint balance0Adjusted = (balance0.mul(10000).sub(amount0In.mul(25)));\r\n        uint balance1Adjusted = (balance1.mul(10000).sub(amount1In.mul(25)));\r\n        require(balance0Adjusted.mul(balance1Adjusted) >= uint(_reserve0).mul(_reserve1).mul(10000**2), 'SwapX: K');\r\n        }\r\n\r\n        _update(balance0, balance1, _reserve0, _reserve1);\r\n        emit Swap(msg.sender, amount0In, amount1In, amount0Out, amount1Out, to);\r\n    }\r\n\r\n    // force balances to match reserves\r\n    function skim(address to) external lock {\r\n        address _token0 = token0; // gas savings\r\n        address _token1 = token1; // gas savings\r\n        _safeTransfer(_token0, to, IERC20(_token0).balanceOf(address(this)).sub(reserve0));\r\n        _safeTransfer(_token1, to, IERC20(_token1).balanceOf(address(this)).sub(reserve1));\r\n    }\r\n\r\n    // force reserves to match balances\r\n    function sync() external lock {\r\n        _update(IERC20(token0).balanceOf(address(this)), IERC20(token1).balanceOf(address(this)), reserve0, reserve1);\r\n    }\r\n}\r\n\r\ncontract FlatSwapXFactory is ISwapXFactory {\r\n    bytes32 public constant INIT_CODE_PAIR_HASH = keccak256(abi.encodePacked(type(SwapXPair).creationCode));\r\n\r\n    address public feeTo;\r\n    address public feeToSetter;\r\n\r\n    mapping(address => mapping(address => address)) public getPair;\r\n    address[] public allPairs;\r\n\r\n    event PairCreated(address indexed token0, address indexed token1, address pair, uint);\r\n\r\n    constructor(address _feeToSetter) public {\r\n        feeToSetter = _feeToSetter;\r\n    }\r\n\r\n    function allPairsLength() external view returns (uint) {\r\n        return allPairs.length;\r\n    }\r\n\r\n    function createPair(address tokenA, address tokenB) external returns (address pair) {\r\n        require(tokenA != tokenB, 'SwapX: IDENTICAL_ADDRESSES');\r\n        (address token0, address token1) = tokenA < tokenB ? (tokenA, tokenB) : (tokenB, tokenA);\r\n        require(token0 != address(0), 'SwapX: ZERO_ADDRESS');\r\n        require(getPair[token0][token1] == address(0), 'SwapX: PAIR_EXISTS'); // single check is sufficient\r\n        bytes memory bytecode = type(SwapXPair).creationCode;\r\n        bytes32 salt = keccak256(abi.encodePacked(token0, token1));\r\n        assembly {\r\n            pair := create2(0, add(bytecode, 32), mload(bytecode), salt)\r\n        }\r\n        ISwapXPair(pair).initialize(token0, token1);\r\n        getPair[token0][token1] = pair;\r\n        getPair[token1][token0] = pair; // populate mapping in the reverse direction\r\n        allPairs.push(pair);\r\n        emit PairCreated(token0, token1, pair, allPairs.length);\r\n    }\r\n\r\n    function setFeeTo(address _feeTo) external {\r\n        require(msg.sender == feeToSetter, 'SwapX: FORBIDDEN');\r\n        feeTo = _feeTo;\r\n    }\r\n\r\n    function setFeeToSetter(address _feeToSetter) external {\r\n        require(msg.sender == feeToSetter, 'SwapX: FORBIDDEN');\r\n        feeToSetter = _feeToSetter;\r\n    }\r\n}",
  "sourcePath": "D:\\Projects\\PancakeSwapProject\\SwapX\\Solidity\\swapx_factory\\contracts\\FlatSwapXFactory.sol",
  "compiler": {
    "name": "solc",
    "version": "0.5.16+commit.9c3226ce.Emscripten.clang"
  },
  "schemaVersion": "3.4.3",
  "updatedAt": "2021-11-22T22:08:24.711Z",
  "networkType": "ethereum",
  "devdoc": {
    "methods": {}
  },
  "userdoc": {
    "methods": {}
  }
}